:020000020000FC
:020000004EC0F0
:02000C001AC018
:0200240032C0E8
:02002C0024C0EE
:1000400011C083B1807269F080916E00817019F4E3
:1000500000936E001895882780936E0085B18E7F7F
:1000600085B91895809100018395823108F080E070
:10007000809300011895809101018395863010F0DE
:1000800003B980E080930101189580910201839566
:100090008C3010F013B980E080930201189503E0D2
:1000A00004B988E385B978940093680080936B0065
:1000B00005E005BD21E020936E000DE00093810076
:1000C00011E000E0109389000093880002E00093A3
:1000D0006F0007E00093B1002093700001E012E090
:0200E000FFCF50
:00000001FF
